:030000000209539F
:0C095300787FE4F6D8FD75814902099A0E
:100E99003F065B4F666D7D077F6F777C395E7971A1
:100EA9000040761E7038375C733E783D6750376E68
:100EB900BF86DBCFE6EDFD87FFEF468040201008B7
:030EC9000402011F
:100DF80008271010111010111010033D323B170373
:100E08004500000002480000013C0001380001399B
:100E180000013600023A00000234000002210000FE
:080E2800022300000225000076
:080FCC007F6C7E91DEFEDFFC6C
:010FD40022FA
:100FAF0075A0A0E4F580F5A075A0807580FFF5A071
:010FBF00220F
:0B0FC000E5B0F4FF65325FF5378F32BB
:010FCB002203
:100F8700438E805389F0758ACD758CD4C28DD28CEF
:050F9700D2AFD2A92237
:03000B0002085692
:10085600C0E0C0F0C083C082C0D075D000C000C068
:0708660004C005C006C00735
:10086D000522E522700205210524E52470020523E9
:10087D00C3E522940AE521940040097521007522F3
:10088D0000753C01C3E5249402E5239400403775BF
:10089D00230075240074C42549F582740E3548F57E
:1008AD0083E493F58075A0C075A00074272549F8E1
:1008BD00E6900E9993F4F58075A0E075A0000549BA
:1008CD00E54970020548C3E5499408E548940040A0
:1008DD00067548007549000540E538640170350519
:1008ED0026E52670020525AE25FF7C017D901202BE
:1008FD00D8C3ED94C7EC94004011D3ED948FEC94D4
:10090D0001500875A0807580FE800675A0807580E9
:10091D00FF75A000C3E52694D0E525940740127518
:10092D00250075260075380075A0807580FF75A0AF
:01093D0000B9
:10093E00D007D006D005D004D000D0D0D082D0833E
:05094E00D0F0D0E03202
:06040900E4F53C120FC0F7
:10040F00E53730E01DE533B40110E53B453A700A9E
:10041F00F533FB7A00792F120ECC053BE53B7002CA
:10042F00053AE533702BE53B6401453A7023E53718
:10043F0030E21E0531E53175F0188485F031E53174
:10044F00C394184003E4F5317B007A00792F120D25
:10045F001DE533702BE53B6401453A7023E53730DA
:10046F00E31E1531E53175F0188485F031E531D390
:10047F00940050037531177B007A00792F120D1DF0
:10048F00E533702BE53B6402453A7023E53730E2E4
:10049F001E0530E53075F03C8485F030E530C394AF
:1004AF003C4003E4F5307B007A00792F120D1DE5F7
:1004BF0033702BE53B6402453A7023E53730E31E7A
:1004CF001530E53075F03C8485F030E530D394007D
:1004DF00500375303B7B007A00792F120D1DE533E9
:1004EF00702BE53B6403453A7023E53730E21E0578
:1004FF002FE52F75F03C8485F02FE52FC3943C40FA
:10050F0003E4F52F7B007A00792F120D1DE5337070
:10051F002BE53B6403453A7023E53730E31E152F77
:10052F00E52F75F03C8485F02FE52FD39400500311
:10053F00752F3B7B007A00792F120D1DE53730E1C7
:10054F00100536E5365403F5360535E535700205E9
:10055F0034E5366022E53564014534701AE53730ED
:10056F00E2150547E54775F0188485F047E547C361
:10057F0094184003E4F547E5366022E535640145FC
:10058F0034701AE53730E3151547E54775F01884D1
:10059F0085F047E547D394005003754717E536605C
:1005AF0022E53564024534701AE53730E215054609
:1005BF00E54675F03C8485F046E546C3943C400320
:1005CF00E4F546E5366022E53564024534701AE5F8
:1005DF003730E3151546E54675F03C8485F046E562
:1005EF0046D39400500375463BE5366022E53564EB
:1005FF00034534701AE53730E2150545E54575F0CA
:10060F003C8485F045E545C3943C4003E4F545E55E
:10061F00366022E53564034534701AE53730E3154B
:10062F001545E54575F03C8485F045E545D39400C7
:10063F00500375453BE533B40113E536700FE537CD
:0E064F0030E30A120FCCE53730E30205392202
:1009DF00E52FC39400400AE52F75F00A84AFF0802D
:1009EF00027F008F27E52FC3940A4009E52F75F08A
:1009FF000A84FF80027F008F28E530C39400400AED
:100A0F00E53075F00A84AFF080027F008F2AE53061
:100A1F00C3940A4009E53075F00A84FF80027F0015
:100A2F008F2BE531C39400400AE53175F00A84AF8E
:100A3F00F080027F008F2DE531C3940A4009E53124
:100A4F0075F00A84FF80027F008F2E752C11752997
:020A5F00112262
:100AE300E52FC39400400AE52F75F00A84AFF08028
:100AF300027F008F27E52FC3940A4009E52F75F085
:100B03000A84FF80027F008F28E530C39400400AE7
:100B1300E53075F00A84AFF080027F008F2AE5305C
:100B2300C3940A4009E53075F00A84FF80027F0010
:0F0B33008F2B752D10752E10752C117529112211
:100B4200E52FC39400400AE52F75F00A84AFF080C8
:100B5200027F008F27E52FC3940A4009E52F75F025
:100B62000A84FF80027F008F28752A10752B10E5FA
:100B720031C39400400AE53175F00A84AFF0800277
:100B82007F008F2DE531C3940A4009E53175F00AE3
:0F0B920084FF80027F008F2E752C117529112290
:100BA100752710752810E530C39400400AE53075AB
:100BB100F00A84AFF080027F008F2AE530C3940AE7
:100BC1004009E53075F00A84FF80027F008F2BE534
:100BD10031C39400400AE53175F00A84AFF0800218
:100BE1007F008F2DE531C3940A4009E53175F00A84
:0F0BF10084FF80027F008F2E752C117529112231
:100A6100E545C39400400AE54575F00A84AFF0807E
:100A7100027F008F27E545C3940A4009E54575F0DB
:100A81000A84FF80027F008F28E546C39400400A54
:100A9100E54675F00A84AFF080027F008F2AE546B3
:100AA100C3940A4009E54675F00A84FF80027F007D
:100AB1008F2BE547C39400400AE54775F00A84AFE0
:100AC100F080027F008F2DE547C3940A4009E54776
:100AD10075F00A84FF80027F008F2E752C11752915
:020AE1001122E0
:100C0000E545C39400400AE54575F00A84AFF080DD
:100C1000027F008F27E545C3940A4009E54575F03A
:100C20000A84FF80027F008F28E546C39400400AB3
:100C3000E54675F00A84AFF080027F008F2AE54612
:100C4000C3940A4009E54675F00A84FF80027F00DC
:0F0C50008F2B752D10752E10752C1175291122F3
:100C5F00E545C39400400AE54575F00A84AFF0807E
:100C6F00027F008F27E545C3940A4009E54575F0DB
:100C7F000A84FF80027F008F28752A10752B10E5DC
:100C8F0047C39400400AE54775F00A84AFF080022D
:100C9F007F008F2DE547C3940A4009E54775F00A99
:0F0CAF0084FF80027F008F2E752C117529112272
:100CBE00752710752810E546C39400400AE5467561
:100CCE00F00A84AFF080027F008F2AE546C3940AB3
:100CDE004009E54675F00A84FF80027F008F2BE500
:100CEE0047C39400400AE54775F00A84AFF08002CE
:100CFE007F008F2DE547C3940A4009E54775F00A3A
:0F0D0E0084FF80027F008F2E752C117529112212
:10065D00120FAF120F877B007A00793D120D1D75B9
:10066D003301E4F536F538120E65AC06AD07EC1224
:10067D000192E4FBFA7980783D12000EE4FBFA79E1
:08068D00C8784212011460DF7D
:10069500750802750908120E65EE3395E08F448ED4
:1006A50043F542F541FDAC41EC12018DE4FBFA79CD
:1006B50080783D12000E1201CB8F448E438D428C03
:1006C50041E536706AE53920E065E533701AE53BAA
:1006D5006401453A7012E5091509AE08700215085E
:1006E5004E6041120AE380EEE533701AE53B640281
:1006F500453A7012E5091509AE08700215084E60F5
:1007050023120B4280EEE533701AE53B6403453A4C
:100715007012E5091509AE08700215084E6005123C
:100725000BA180EE1209DFE53C6401705C8057E5A2
:10073500366056E53920E051E536B40112E5091574
:1007450009AE08700215084E6033120C0080EEE504
:1007550036B40212E5091509AE08700215084E6097
:100765001C120C5F80EEE536B40312E5091509AEDF
:1007750008700215084E6005120CBE80EE120A6163
:10078500E53CB40104E412040AE540C39464401155
:10079500E4F540E533B401097B007A00792F120DA9
:1007A5006FC3E53B9404E53A94004008753301E4D2
:1007B500F53AF53BC3E5359404E53494004005E48A
:1007C500F534F535E53065467037E5316547703107
:1007D500E52F6545601EE52F1465456017E52F2457
:1007E500FE6545600FE52F24FD65456007E52F246F
:1007F500FCB54503753801E53CB4010812040980D0
:1008050003E4F538E53920E003020695E53CB4013B
:1008150003120409752A10752B10752C10752D10EF
:10082500752E10E47B0AFAF9F8AF44AE43AD42AC3D
:1008350041120DB48F29E47B0AFAF9F8AF44AE43AF
:0E084500AD42AC41120DB4AF038F2875270CE5
:0308530002069505
:100F9C00E4FEC297EF1392A3EFC313FFD2970EBEDA
:020FAC0008F04B
:010FAE002220
:080F3B0075F00A84EE25F0FDBB
:100F4300C29300C29700D29300120F9CAF05120FF9
:040F53009CC2932287
:100E3100E4FDC29300C29700D29300120F9CE4FF1D
:100E4100C297EDC313FD30A303430580D2970FBFB3
:100E510008EEC29300C29700D29700C2A300D2A3AA
:030E610000AF05DA
:010E6400226B
:100D1D00E4FD7F8E120F4312024CFF75F00A84C45E
:100D2D0054F0FEEF7F80120F3B900001120265FF21
:100D3D0075F00A84C454F0FEEF7F82120F3B9000D1
:100D4D0002120265FF75F00A84C454F0FEEF75F0CF
:100D5D000A84EE25F0FD7F84120F437D807F8E0285
:020D6D000F4332
:100D6F007F81120E31EFC4540775F00AA4FEEF54C1
:100D7F000F2E1202927F83120E31EFC4540775F0BB
:100D8F000AA4FEEF540F2E9000011202A47F8512C9
:100D9F000E31EFC4540775F00AA4FEEF540F2E90D6
:050DAF0000020202A495
:100ECC00E4FD7F8E120F4312024CFF75F00A84C4AE
:100EDC0054F0FEEF75F00A84E5F04E4480FD7F80FF
:0A0EEC00120F437D807F8E020F433A
:040F71007F057E007A
:100F75007C007D0A1202C6EF1FAC0670011E4C7084
:020F8500F62252
:020F1D00AB0720
:100F1F00E4FAC294EB139294120F71D294EBC313B1
:0C0F2F00FB0ABA08ED7F057E00020F757A
:100F5700E4FAC294EBC313FBD294309403430380A7
:090F6700120F710ABA08EBAF0386
:010F7000225E
:100EF600C200D2947F0C7E00120F75C2947F507E82
:100F060000120F75D2947F0A7E00120F75A294927A
:060F160000120F71A200A1
:010F1C0022B2
:100E6500120EF67FCC120F1D7F44120F1D7FC87E18
:100E750000120F75120EF67FCC120F1D7FBE120FDA
:100E85001D120F57750A008F0B120F57EF450AFEFB
:030E9500E50BFF6B
:010E98002237
:10000E00EC4D6011E8497017ED33EC3304600DE4EC
:10001E00FCFFFEFD22E933E8330470F802023712CA
:10002E00020258046009E4CC2481500628500902CB
:10003E00024128400302023EC0E0EB4A7044B98000
:10004E0006D0E0FB02022DEF4E701CBD8008EBFFC8
:10005E00EAFEE9FD80EBE98DF0A4FEE5F00200F783
:10006E00E9CDF9EAFEEBFFEF89F0A4FCE5F0CE89CD
:10007E00F0A42EFFE435F0CD89F0A42DFEE435F08A
:10008E008067EF4E7005BD80D780C3EF8BF0A4ACB8
:10009E00F0EE8BF0A42CFCE435F0F8EF8AF0A42CF3
:1000AE00E5F038FCE433CB8DF0A42CFCE5F03BF806
:1000BE00EE8AF0A42CFCE5F038F8E433CF89F0A4F6
:1000CE002CFCE5F038CF3400CE89F0A42FFFE5F0FC
:1000DE003EFEE433C98DF0A42EFEE5F039CD8AF054
:1000EE00A42FFFE5F03EFEE43DFD33D0E0FB5007CC
:1000FE000BBB000F020241EC2CFCEF33FFEE33FE84
:06010E00ED33FD020219B1
:1001140074F8CC6480CCC86480C8F58204604FC392
:10012400EB9FF5F0EA9E42F0E99D42F0E89C45F031
:10013400603C501DE5825FFFE582D313CB5BCBF4BB
:100144002B5582FB50280ABA002409B900200880E4
:100154001DE5825BFBE582D313CF5FCFF4C3132F7E
:100164005582FF50090EBE00050DBD00010CC3EB06
:100174009FF5F0EA9E42F0E99D42F0E89C45F0606C
:0901840007CC4820E701B3EC228E
:10018D0075F020800E75F010800575F0087D007EED
:10019D00007F003392D530D50312032DEC33401080
:1001AD00EF33FFEE33FEED33FDEC33FCD5F0ED22F6
:0E01BD00E5F0247EA2D513CC92E7CDCEFF2232
:1001CB00EDD2E7CD33EC3392D524814006E4FFFE2C
:1001DB00FDFC22FCE4CFCECDCC24E0501174FF808B
:1001EB00EDC3CC13CCCD13CDCE13CECF13CF047028
:0701FB00F030D5DE02032DF8
:10020200E9D2E7C933E833F892D5EDD2E7CD33EC42
:0702120033FC5002B2D522BB
:10021900EC30E7100FBF000C0EBE00080DBD000446
:100229000BEB6014A2D5EB13FCED92E7FD2274FFF2
:10023900FCFDFEFF22E480F8A2D574FF13FC7D804B
:03024900E480EF5F
:10095F0002065DE493A3F8E493A34003F68001F24B
:10096F0008DFF48029E493A3F85407240CC8C33399
:10097F00C4540F4420C8834004F456800146F6DF68
:10098F00E4800B0102040810204080900DF8E47EF3
:10099F00019360BCA3FF543F30E509541FFEE4935D
:1009AF00A360010ECF54C025E060A840B8E493A324
:1009BF00FAE493A3F8E493A3C8C582C8CAC583CA4F
:1009CF00F0A3C8C582C8CAC583CADFE9DEE780BE07
:010E300000C1
:10024C00BB010689828A83E0225002E722BBFE02B0
:09025C00E32289828A83E49322E3
:10026500BB010CE58229F582E5833AF583E022504E
:1002750006E92582F8E622BBFE06E92582F8E22298
:0D028500E58229F582E5833AF583E49322B2
:10029200BB010689828A83F0225002F722BBFE014B
:0202A200F32245
:1002A400F8BB010DE58229F582E5833AF583E8F090
:1002B400225006E92582C8F622BBFE05E92582C83C
:0202C400F22224
:1002C600EF8DF0A4A8F0CF8CF0A428CE8DF0A42E4C
:0202D600FE2206
:1002D800BC000BBE0029EF8DF084FFADF022E4CC0A
:1002E800F875F008EF2FFFEE33FEEC33FCEE9DECD3
:1002F800984005FCEE9DFE0FD5F0E9E4CEFD22ED19
:10030800F8F5F0EE8420D21CFEADF075F008EF2F62
:10031800FFED33FD4007985006D5F0F222C398FD53
:050328000FD5F0EA22F0
:100DB400C2D5E830E70FB2D5E4C39BFBE49AFAE46A
:100DC40099F9E498F8EC30E717B2D5120DEA12035A
:100DD40077E4C39BFBE49AFAE499F9E498F8800376
:100DE40012037730D50DE4C39FFFE49EFEE49DFD1E
:040DF400E49CFC225D
:0E032D00C3E49FFFE49EFEE49DFDE49CFC22E1
:10033B0075F008758200EF2FFFEE33FECD33CDCC79
:10034B0033CCC58233C5829BED9AEC99E5829840FC
:10035B000CF582EE9BFEED9AFDEC99FC0FD5F0D6D9
:10036B00E4CEFBE4CDFAE4CCF9A88222B800C1B903
:10037B000059BA002DEC8BF084CFCECDFCE5F0CB41
:10038B00F97818EF2FFFEE33FEED33FDEC33FCEB7A
:10039B0033FB10D703994004EB99FB0FD8E5E4F935
:1003AB00FA227818EF2FFFEE33FEED33FDEC33FC22
:1003BB00C933C910D7059BE99A4007EC9BFCE99A16
:1003CB00F90FD8E0E4C9FAE4CCFB2275F010EF2F5B
:1003DB00FFEE33FEED33FDCC33CCC833C810D7075B
:1003EB009BEC9AE899400AED9BFDEC9AFCE899F896
:0E03FB000FD5F0DAE4CDFBE4CCFAE4C8F92229
:00000001FF
